{
  "_format": "hh-sol-artifact-1",
  "contractName": "BuyMyRoom",
  "sourceName": "contracts/BuyMyRoom.sol",
  "abi": [
    {
      "inputs": [],
      "stateMutability": "nonpayable",
      "type": "constructor"
    },
    {
      "inputs": [
        {
          "internalType": "address",
          "name": "sender",
          "type": "address"
        },
        {
          "internalType": "uint256",
          "name": "tokenId",
          "type": "uint256"
        },
        {
          "internalType": "address",
          "name": "owner",
          "type": "address"
        }
      ],
      "name": "ERC721IncorrectOwner",
      "type": "error"
    },
    {
      "inputs": [
        {
          "internalType": "address",
          "name": "operator",
          "type": "address"
        },
        {
          "internalType": "uint256",
          "name": "tokenId",
          "type": "uint256"
        }
      ],
      "name": "ERC721InsufficientApproval",
      "type": "error"
    },
    {
      "inputs": [
        {
          "internalType": "address",
          "name": "approver",
          "type": "address"
        }
      ],
      "name": "ERC721InvalidApprover",
      "type": "error"
    },
    {
      "inputs": [
        {
          "internalType": "address",
          "name": "operator",
          "type": "address"
        }
      ],
      "name": "ERC721InvalidOperator",
      "type": "error"
    },
    {
      "inputs": [
        {
          "internalType": "address",
          "name": "owner",
          "type": "address"
        }
      ],
      "name": "ERC721InvalidOwner",
      "type": "error"
    },
    {
      "inputs": [
        {
          "internalType": "address",
          "name": "receiver",
          "type": "address"
        }
      ],
      "name": "ERC721InvalidReceiver",
      "type": "error"
    },
    {
      "inputs": [
        {
          "internalType": "address",
          "name": "sender",
          "type": "address"
        }
      ],
      "name": "ERC721InvalidSender",
      "type": "error"
    },
    {
      "inputs": [
        {
          "internalType": "uint256",
          "name": "tokenId",
          "type": "uint256"
        }
      ],
      "name": "ERC721NonexistentToken",
      "type": "error"
    },
    {
      "anonymous": false,
      "inputs": [
        {
          "indexed": true,
          "internalType": "address",
          "name": "owner",
          "type": "address"
        },
        {
          "indexed": true,
          "internalType": "address",
          "name": "approved",
          "type": "address"
        },
        {
          "indexed": true,
          "internalType": "uint256",
          "name": "tokenId",
          "type": "uint256"
        }
      ],
      "name": "Approval",
      "type": "event"
    },
    {
      "anonymous": false,
      "inputs": [
        {
          "indexed": true,
          "internalType": "address",
          "name": "owner",
          "type": "address"
        },
        {
          "indexed": true,
          "internalType": "address",
          "name": "operator",
          "type": "address"
        },
        {
          "indexed": false,
          "internalType": "bool",
          "name": "approved",
          "type": "bool"
        }
      ],
      "name": "ApprovalForAll",
      "type": "event"
    },
    {
      "anonymous": false,
      "inputs": [
        {
          "indexed": false,
          "internalType": "uint256",
          "name": "tokenId",
          "type": "uint256"
        },
        {
          "indexed": false,
          "internalType": "uint256",
          "name": "price",
          "type": "uint256"
        },
        {
          "indexed": false,
          "internalType": "address",
          "name": "owner",
          "type": "address"
        }
      ],
      "name": "HouseListed",
      "type": "event"
    },
    {
      "anonymous": false,
      "inputs": [
        {
          "indexed": false,
          "internalType": "uint256",
          "name": "tokenId",
          "type": "uint256"
        },
        {
          "indexed": false,
          "internalType": "uint256",
          "name": "price",
          "type": "uint256"
        },
        {
          "indexed": false,
          "internalType": "address",
          "name": "buyer",
          "type": "address"
        }
      ],
      "name": "HouseSold",
      "type": "event"
    },
    {
      "anonymous": false,
      "inputs": [
        {
          "indexed": true,
          "internalType": "address",
          "name": "from",
          "type": "address"
        },
        {
          "indexed": true,
          "internalType": "address",
          "name": "to",
          "type": "address"
        },
        {
          "indexed": true,
          "internalType": "uint256",
          "name": "tokenId",
          "type": "uint256"
        }
      ],
      "name": "Transfer",
      "type": "event"
    },
    {
      "inputs": [],
      "name": "airdrop",
      "outputs": [],
      "stateMutability": "nonpayable",
      "type": "function"
    },
    {
      "inputs": [
        {
          "internalType": "address",
          "name": "to",
          "type": "address"
        },
        {
          "internalType": "uint256",
          "name": "tokenId",
          "type": "uint256"
        }
      ],
      "name": "approve",
      "outputs": [],
      "stateMutability": "nonpayable",
      "type": "function"
    },
    {
      "inputs": [
        {
          "internalType": "address",
          "name": "owner",
          "type": "address"
        }
      ],
      "name": "balanceOf",
      "outputs": [
        {
          "internalType": "uint256",
          "name": "",
          "type": "uint256"
        }
      ],
      "stateMutability": "view",
      "type": "function"
    },
    {
      "inputs": [
        {
          "internalType": "uint256",
          "name": "tokenId",
          "type": "uint256"
        }
      ],
      "name": "buyHouse",
      "outputs": [],
      "stateMutability": "nonpayable",
      "type": "function"
    },
    {
      "inputs": [
        {
          "internalType": "address",
          "name": "",
          "type": "address"
        }
      ],
      "name": "claimedList",
      "outputs": [
        {
          "internalType": "bool",
          "name": "",
          "type": "bool"
        }
      ],
      "stateMutability": "view",
      "type": "function"
    },
    {
      "inputs": [],
      "name": "feeRate",
      "outputs": [
        {
          "internalType": "uint256",
          "name": "",
          "type": "uint256"
        }
      ],
      "stateMutability": "view",
      "type": "function"
    },
    {
      "inputs": [
        {
          "internalType": "uint256",
          "name": "tokenId",
          "type": "uint256"
        }
      ],
      "name": "getApproved",
      "outputs": [
        {
          "internalType": "address",
          "name": "",
          "type": "address"
        }
      ],
      "stateMutability": "view",
      "type": "function"
    },
    {
      "inputs": [
        {
          "internalType": "uint256",
          "name": "tokenId",
          "type": "uint256"
        }
      ],
      "name": "getHouseInfo",
      "outputs": [
        {
          "internalType": "address",
          "name": "owner",
          "type": "address"
        },
        {
          "internalType": "bool",
          "name": "isListed",
          "type": "bool"
        },
        {
          "internalType": "uint256",
          "name": "price",
          "type": "uint256"
        },
        {
          "internalType": "uint256",
          "name": "listTimestamp",
          "type": "uint256"
        }
      ],
      "stateMutability": "view",
      "type": "function"
    },
    {
      "inputs": [],
      "name": "getListedHouses",
      "outputs": [
        {
          "internalType": "uint256[]",
          "name": "",
          "type": "uint256[]"
        }
      ],
      "stateMutability": "view",
      "type": "function"
    },
    {
      "inputs": [],
      "name": "getMyHouses",
      "outputs": [
        {
          "internalType": "uint256[]",
          "name": "",
          "type": "uint256[]"
        }
      ],
      "stateMutability": "view",
      "type": "function"
    },
    {
      "inputs": [],
      "name": "helloworld",
      "outputs": [
        {
          "internalType": "string",
          "name": "",
          "type": "string"
        }
      ],
      "stateMutability": "pure",
      "type": "function"
    },
    {
      "inputs": [
        {
          "internalType": "uint256",
          "name": "",
          "type": "uint256"
        }
      ],
      "name": "houses",
      "outputs": [
        {
          "internalType": "address",
          "name": "owner",
          "type": "address"
        },
        {
          "internalType": "uint256",
          "name": "listedTimestamp",
          "type": "uint256"
        },
        {
          "internalType": "uint256",
          "name": "price",
          "type": "uint256"
        },
        {
          "internalType": "bool",
          "name": "isListed",
          "type": "bool"
        }
      ],
      "stateMutability": "view",
      "type": "function"
    },
    {
      "inputs": [
        {
          "internalType": "address",
          "name": "owner",
          "type": "address"
        },
        {
          "internalType": "address",
          "name": "operator",
          "type": "address"
        }
      ],
      "name": "isApprovedForAll",
      "outputs": [
        {
          "internalType": "bool",
          "name": "",
          "type": "bool"
        }
      ],
      "stateMutability": "view",
      "type": "function"
    },
    {
      "inputs": [
        {
          "internalType": "uint256",
          "name": "tokenId",
          "type": "uint256"
        },
        {
          "internalType": "uint256",
          "name": "price",
          "type": "uint256"
        }
      ],
      "name": "listHouse",
      "outputs": [],
      "stateMutability": "nonpayable",
      "type": "function"
    },
    {
      "inputs": [],
      "name": "name",
      "outputs": [
        {
          "internalType": "string",
          "name": "",
          "type": "string"
        }
      ],
      "stateMutability": "view",
      "type": "function"
    },
    {
      "inputs": [],
      "name": "nextTokenId",
      "outputs": [
        {
          "internalType": "uint256",
          "name": "",
          "type": "uint256"
        }
      ],
      "stateMutability": "view",
      "type": "function"
    },
    {
      "inputs": [
        {
          "internalType": "uint256",
          "name": "tokenId",
          "type": "uint256"
        }
      ],
      "name": "ownerOf",
      "outputs": [
        {
          "internalType": "address",
          "name": "",
          "type": "address"
        }
      ],
      "stateMutability": "view",
      "type": "function"
    },
    {
      "inputs": [],
      "name": "platformOwner",
      "outputs": [
        {
          "internalType": "address",
          "name": "",
          "type": "address"
        }
      ],
      "stateMutability": "view",
      "type": "function"
    },
    {
      "inputs": [
        {
          "internalType": "address",
          "name": "from",
          "type": "address"
        },
        {
          "internalType": "address",
          "name": "to",
          "type": "address"
        },
        {
          "internalType": "uint256",
          "name": "tokenId",
          "type": "uint256"
        }
      ],
      "name": "safeTransferFrom",
      "outputs": [],
      "stateMutability": "nonpayable",
      "type": "function"
    },
    {
      "inputs": [
        {
          "internalType": "address",
          "name": "from",
          "type": "address"
        },
        {
          "internalType": "address",
          "name": "to",
          "type": "address"
        },
        {
          "internalType": "uint256",
          "name": "tokenId",
          "type": "uint256"
        },
        {
          "internalType": "bytes",
          "name": "data",
          "type": "bytes"
        }
      ],
      "name": "safeTransferFrom",
      "outputs": [],
      "stateMutability": "nonpayable",
      "type": "function"
    },
    {
      "inputs": [
        {
          "internalType": "address",
          "name": "operator",
          "type": "address"
        },
        {
          "internalType": "bool",
          "name": "approved",
          "type": "bool"
        }
      ],
      "name": "setApprovalForAll",
      "outputs": [],
      "stateMutability": "nonpayable",
      "type": "function"
    },
    {
      "inputs": [
        {
          "internalType": "bytes4",
          "name": "interfaceId",
          "type": "bytes4"
        }
      ],
      "name": "supportsInterface",
      "outputs": [
        {
          "internalType": "bool",
          "name": "",
          "type": "bool"
        }
      ],
      "stateMutability": "view",
      "type": "function"
    },
    {
      "inputs": [],
      "name": "symbol",
      "outputs": [
        {
          "internalType": "string",
          "name": "",
          "type": "string"
        }
      ],
      "stateMutability": "view",
      "type": "function"
    },
    {
      "inputs": [],
      "name": "token",
      "outputs": [
        {
          "internalType": "contract RoomToken",
          "name": "",
          "type": "address"
        }
      ],
      "stateMutability": "view",
      "type": "function"
    },
    {
      "inputs": [
        {
          "internalType": "uint256",
          "name": "tokenId",
          "type": "uint256"
        }
      ],
      "name": "tokenURI",
      "outputs": [
        {
          "internalType": "string",
          "name": "",
          "type": "string"
        }
      ],
      "stateMutability": "view",
      "type": "function"
    },
    {
      "inputs": [
        {
          "internalType": "address",
          "name": "from",
          "type": "address"
        },
        {
          "internalType": "address",
          "name": "to",
          "type": "address"
        },
        {
          "internalType": "uint256",
          "name": "tokenId",
          "type": "uint256"
        }
      ],
      "name": "transferFrom",
      "outputs": [],
      "stateMutability": "nonpayable",
      "type": "function"
    }
  ],
  "bytecode": "0x60806040523480156200001157600080fd5b506040518060400160405280600581526020017f486f7573650000000000000000000000000000000000000000000000000000008152506040518060400160405280600381526020017f4e5446000000000000000000000000000000000000000000000000000000000081525081600090816200008f9190620003ef565b508060019081620000a19190620003ef565b5050506001600881905550604051620000ba9062000167565b604051809103906000f080158015620000d7573d6000803e3d6000fd5b50600960006101000a81548173ffffffffffffffffffffffffffffffffffffffff021916908373ffffffffffffffffffffffffffffffffffffffff1602179055506001600a8190555033600b60006101000a81548173ffffffffffffffffffffffffffffffffffffffff021916908373ffffffffffffffffffffffffffffffffffffffff160217905550620004d6565b61194d8062003a6d83390190565b600081519050919050565b7f4e487b7100000000000000000000000000000000000000000000000000000000600052604160045260246000fd5b7f4e487b7100000000000000000000000000000000000000000000000000000000600052602260045260246000fd5b60006002820490506001821680620001f757607f821691505b6020821081036200020d576200020c620001af565b5b50919050565b60008190508160005260206000209050919050565b60006020601f8301049050919050565b600082821b905092915050565b600060088302620002777fffffffffffffffffffffffffffffffffffffffffffffffffffffffffffffffff8262000238565b62000283868362000238565b95508019841693508086168417925050509392505050565b6000819050919050565b6000819050919050565b6000620002d0620002ca620002c4846200029b565b620002a5565b6200029b565b9050919050565b6000819050919050565b620002ec83620002af565b62000304620002fb82620002d7565b84845462000245565b825550505050565b600090565b6200031b6200030c565b62000328818484620002e1565b505050565b5b8181101562000350576200034460008262000311565b6001810190506200032e565b5050565b601f8211156200039f57620003698162000213565b620003748462000228565b8101602085101562000384578190505b6200039c620003938562000228565b8301826200032d565b50505b505050565b600082821c905092915050565b6000620003c460001984600802620003a4565b1980831691505092915050565b6000620003df8383620003b1565b9150826002028217905092915050565b620003fa8262000175565b67ffffffffffffffff81111562000416576200041562000180565b5b620004228254620001de565b6200042f82828562000354565b600060209050601f83116001811462000467576000841562000452578287015190505b6200045e8582620003d1565b865550620004ce565b601f198416620004778662000213565b60005b82811015620004a1578489015182556001820191506020850194506020810190506200047a565b86831015620004c15784890151620004bd601f891682620003b1565b8355505b6001600288020188555050505b505050505050565b61358780620004e66000396000f3fe608060405234801561001057600080fd5b506004361061018e5760003560e01c8063978bbdb9116100de578063b88d4fde11610097578063e985e9c511610071578063e985e9c51461049d578063eddc4269146104cd578063f4dcb9c1146104e9578063fc0c546a146105075761018e565b8063b88d4fde14610421578063c87b56dd1461043d578063da7cbba31461046d5761018e565b8063978bbdb91461034757806399b2317814610365578063a22cb46514610381578063ad50f56d1461039d578063aeda852f146103d0578063b14f1afd146104035761018e565b80633884d6351161014b5780636352211e116101255780636352211e146102ab57806370a08231146102db57806375794a3c1461030b57806395d89b41146103295761018e565b80633884d6351461026757806342842e0e146102715780634df8ccb11461028d5761018e565b806301ffc9a71461019357806306fdde03146101c3578063081812fc146101e1578063095ea7b31461021157806323b872dd1461022d5780632f2f485914610249575b600080fd5b6101ad60048036038101906101a8919061265f565b610525565b6040516101ba91906126a7565b60405180910390f35b6101cb610607565b6040516101d89190612752565b60405180910390f35b6101fb60048036038101906101f691906127aa565b610699565b6040516102089190612818565b60405180910390f35b61022b6004803603810190610226919061285f565b6106b5565b005b6102476004803603810190610242919061289f565b6106cb565b005b6102516107cd565b60405161025e9190612752565b60405180910390f35b61026f61080a565b005b61028b6004803603810190610286919061289f565b610a04565b005b610295610a24565b6040516102a29190612818565b60405180910390f35b6102c560048036038101906102c091906127aa565b610a4a565b6040516102d29190612818565b60405180910390f35b6102f560048036038101906102f091906128f2565b610a5c565b604051610302919061292e565b60405180910390f35b610313610b16565b604051610320919061292e565b60405180910390f35b610331610b1c565b60405161033e9190612752565b60405180910390f35b61034f610bae565b60405161035c919061292e565b60405180910390f35b61037f600480360381019061037a9190612949565b610bb4565b005b61039b600480360381019061039691906129b5565b610d32565b005b6103b760048036038101906103b291906127aa565b610d48565b6040516103c794939291906129f5565b60405180910390f35b6103ea60048036038101906103e591906127aa565b610e19565b6040516103fa9493929190612a3a565b60405180910390f35b61040b610e76565b6040516104189190612b3d565b60405180910390f35b61043b60048036038101906104369190612c94565b610f6b565b005b610457600480360381019061045291906127aa565b610f88565b6040516104649190612752565b60405180910390f35b610487600480360381019061048291906128f2565b610ff1565b60405161049491906126a7565b60405180910390f35b6104b760048036038101906104b29190612d17565b611011565b6040516104c491906126a7565b60405180910390f35b6104e760048036038101906104e291906127aa565b6110a5565b005b6104f16114a6565b6040516104fe9190612b3d565b60405180910390f35b61050f611636565b60405161051c9190612db6565b60405180910390f35b60007f80ac58cd000000000000000000000000000000000000000000000000000000007bffffffffffffffffffffffffffffffffffffffffffffffffffffffff1916827bffffffffffffffffffffffffffffffffffffffffffffffffffffffff191614806105f057507f5b5e139f000000000000000000000000000000000000000000000000000000007bffffffffffffffffffffffffffffffffffffffffffffffffffffffff1916827bffffffffffffffffffffffffffffffffffffffffffffffffffffffff1916145b8061060057506105ff8261165c565b5b9050919050565b60606000805461061690612e00565b80601f016020809104026020016040519081016040528092919081815260200182805461064290612e00565b801561068f5780601f106106645761010080835404028352916020019161068f565b820191906000526020600020905b81548152906001019060200180831161067257829003601f168201915b5050505050905090565b60006106a4826116c6565b506106ae8261174e565b9050919050565b6106c782826106c261178b565b611793565b5050565b600073ffffffffffffffffffffffffffffffffffffffff168273ffffffffffffffffffffffffffffffffffffffff160361073d5760006040517f64a0ae920000000000000000000000000000000000000000000000000000000081526004016107349190612818565b60405180910390fd5b6000610751838361074c61178b565b6117a5565b90508373ffffffffffffffffffffffffffffffffffffffff168173ffffffffffffffffffffffffffffffffffffffff16146107c7578382826040517f64283d7b0000000000000000000000000000000000000000000000000000000081526004016107be93929190612e31565b60405180910390fd5b50505050565b60606040518060400160405280600b81526020017f68656c6c6f20776f726c64000000000000000000000000000000000000000000815250905090565b600760003373ffffffffffffffffffffffffffffffffffffffff1673ffffffffffffffffffffffffffffffffffffffff16815260200190815260200160002060009054906101000a900460ff1615610897576040517f08c379a000000000000000000000000000000000000000000000000000000000815260040161088e90612eda565b60405180910390fd5b60005b6003811215610a01576108af336008546119bf565b60405180608001604052803373ffffffffffffffffffffffffffffffffffffffff16815260200160008152602001600081526020016000151581525060066000600854815260200190815260200160002060008201518160000160006101000a81548173ffffffffffffffffffffffffffffffffffffffff021916908373ffffffffffffffffffffffffffffffffffffffff160217905550602082015181600101556040820151816002015560608201518160030160006101000a81548160ff0219169083151502179055509050506001600760003373ffffffffffffffffffffffffffffffffffffffff1673ffffffffffffffffffffffffffffffffffffffff16815260200190815260200160002060006101000a81548160ff021916908315150217905550600860008154809291906109e990612f29565b919050555080806109f990612f7b565b91505061089a565b50565b610a1f83838360405180602001604052806000815250610f6b565b505050565b600b60009054906101000a900473ffffffffffffffffffffffffffffffffffffffff1681565b6000610a55826116c6565b9050919050565b60008073ffffffffffffffffffffffffffffffffffffffff168273ffffffffffffffffffffffffffffffffffffffff1603610acf5760006040517f89c62b64000000000000000000000000000000000000000000000000000000008152600401610ac69190612818565b60405180910390fd5b600360008373ffffffffffffffffffffffffffffffffffffffff1673ffffffffffffffffffffffffffffffffffffffff168152602001908152602001600020549050919050565b60085481565b606060018054610b2b90612e00565b80601f0160208091040260200160405190810160405280929190818152602001828054610b5790612e00565b8015610ba45780601f10610b7957610100808354040283529160200191610ba4565b820191906000526020600020905b815481529060010190602001808311610b8757829003601f168201915b5050505050905090565b600a5481565b3373ffffffffffffffffffffffffffffffffffffffff16610bd483610a4a565b73ffffffffffffffffffffffffffffffffffffffff1614610c2a576040517f08c379a0000000000000000000000000000000000000000000000000000000008152600401610c2190613035565b60405180910390fd5b6006600083815260200190815260200160002060030160009054906101000a900460ff1615610c8e576040517f08c379a0000000000000000000000000000000000000000000000000000000008152600401610c85906130a1565b60405180910390fd5b42600660008481526020019081526020016000206001018190555080600660008481526020019081526020016000206002018190555060016006600084815260200190815260200160002060030160006101000a81548160ff0219169083151502179055507f60b3e540896cf4a419e7b7274a1f1282223f5d92ca6f0152cf820fe457fb4843828233604051610d26939291906130c1565b60405180910390a15050565b610d44610d3d61178b565b8383611ab8565b5050565b6000806000806000600660008781526020019081526020016000206040518060800160405290816000820160009054906101000a900473ffffffffffffffffffffffffffffffffffffffff1673ffffffffffffffffffffffffffffffffffffffff1673ffffffffffffffffffffffffffffffffffffffff16815260200160018201548152602001600282015481526020016003820160009054906101000a900460ff161515151581525050905080600001518160600151826040015183602001519450945094509450509193509193565b60066020528060005260406000206000915090508060000160009054906101000a900473ffffffffffffffffffffffffffffffffffffffff16908060010154908060020154908060030160009054906101000a900460ff16905084565b60606000610e8333610a5c565b905060008167ffffffffffffffff811115610ea157610ea0612b69565b5b604051908082528060200260200182016040528015610ecf5781602001602082028036833780820191505090505b509050600080600190505b600854811015610f61573373ffffffffffffffffffffffffffffffffffffffff16610f0482610a4a565b73ffffffffffffffffffffffffffffffffffffffff1603610f4e5780838381518110610f3357610f326130f8565b5b6020026020010181815250508180610f4a90612f29565b9250505b8080610f5990612f29565b915050610eda565b5081935050505090565b610f768484846106cb565b610f8284848484611c27565b50505050565b6060610f93826116c6565b506000610f9e611dde565b90506000815111610fbe5760405180602001604052806000815250610fe9565b80610fc884611df5565b604051602001610fd9929190613163565b6040516020818303038152906040525b915050919050565b60076020528060005260406000206000915054906101000a900460ff1681565b6000600560008473ffffffffffffffffffffffffffffffffffffffff1673ffffffffffffffffffffffffffffffffffffffff16815260200190815260200160002060008373ffffffffffffffffffffffffffffffffffffffff1673ffffffffffffffffffffffffffffffffffffffff16815260200190815260200160002060009054906101000a900460ff16905092915050565b6000600660008381526020019081526020016000209050600060648260020154600a54603c8560010154426110da9190613187565b6110e491906131ea565b6110ee919061321b565b6110f8919061321b565b61110291906131ea565b905060008183600201546111169190613187565b905061112181611ec3565b60008111611164576040517f08c379a000000000000000000000000000000000000000000000000000000000815260040161115b906132cf565b60405180910390fd5b8260020154600960009054906101000a900473ffffffffffffffffffffffffffffffffffffffff1673ffffffffffffffffffffffffffffffffffffffff166370a08231336040518263ffffffff1660e01b81526004016111c49190612818565b602060405180830381865afa1580156111e1573d6000803e3d6000fd5b505050506040513d601f19601f820116820180604052508101906112059190613304565b1015611246576040517f08c379a000000000000000000000000000000000000000000000000000000000815260040161123d9061337d565b60405180910390fd5b600960009054906101000a900473ffffffffffffffffffffffffffffffffffffffff1673ffffffffffffffffffffffffffffffffffffffff166323b872dd338560000160009054906101000a900473ffffffffffffffffffffffffffffffffffffffff16846040518463ffffffff1660e01b81526004016112c99392919061339d565b6020604051808303816000875af11580156112e8573d6000803e3d6000fd5b505050506040513d601f19601f8201168201806040525081019061130c91906133e9565b50600960009054906101000a900473ffffffffffffffffffffffffffffffffffffffff1673ffffffffffffffffffffffffffffffffffffffff166323b872dd33600b60009054906101000a900473ffffffffffffffffffffffffffffffffffffffff16856040518463ffffffff1660e01b815260040161138e9392919061339d565b6020604051808303816000875af11580156113ad573d6000803e3d6000fd5b505050506040513d601f19601f820116820180604052508101906113d191906133e9565b506114018360000160009054906101000a900473ffffffffffffffffffffffffffffffffffffffff163386611f5c565b338360000160006101000a81548173ffffffffffffffffffffffffffffffffffffffff021916908373ffffffffffffffffffffffffffffffffffffffff16021790555060008360030160006101000a81548160ff0219169083151502179055507fb6e6b0aa920ed5fbb8dd058bbd321e9b2b8780062b0dd9bc84019b47706f73ab84846002015433604051611498939291906130c1565b60405180910390a150505050565b6060600060016008546114b99190613187565b905060008167ffffffffffffffff8111156114d7576114d6612b69565b5b6040519080825280602002602001820160405280156115055781602001602082028036833780820191505090505b509050600080600190505b600854811015611585576006600082815260200190815260200160002060030160009054906101000a900460ff16156115725780838381518110611557576115566130f8565b5b602002602001018181525050818061156e90612f29565b9250505b808061157d90612f29565b915050611510565b5060008167ffffffffffffffff8111156115a2576115a1612b69565b5b6040519080825280602002602001820160405280156115d05781602001602082028036833780820191505090505b50905060005b8281101561162b578381815181106115f1576115f06130f8565b5b602002602001015182828151811061160c5761160b6130f8565b5b602002602001018181525050808061162390612f29565b9150506115d6565b508094505050505090565b600960009054906101000a900473ffffffffffffffffffffffffffffffffffffffff1681565b60007f01ffc9a7000000000000000000000000000000000000000000000000000000007bffffffffffffffffffffffffffffffffffffffffffffffffffffffff1916827bffffffffffffffffffffffffffffffffffffffffffffffffffffffff1916149050919050565b6000806116d2836120c9565b9050600073ffffffffffffffffffffffffffffffffffffffff168173ffffffffffffffffffffffffffffffffffffffff160361174557826040517f7e27328900000000000000000000000000000000000000000000000000000000815260040161173c919061292e565b60405180910390fd5b80915050919050565b60006004600083815260200190815260200160002060009054906101000a900473ffffffffffffffffffffffffffffffffffffffff169050919050565b600033905090565b6117a08383836001612106565b505050565b6000806117b1846120c9565b9050600073ffffffffffffffffffffffffffffffffffffffff168373ffffffffffffffffffffffffffffffffffffffff16146117f3576117f28184866122cb565b5b600073ffffffffffffffffffffffffffffffffffffffff168173ffffffffffffffffffffffffffffffffffffffff161461188457611835600085600080612106565b6001600360008373ffffffffffffffffffffffffffffffffffffffff1673ffffffffffffffffffffffffffffffffffffffff168152602001908152602001600020600082825403925050819055505b600073ffffffffffffffffffffffffffffffffffffffff168573ffffffffffffffffffffffffffffffffffffffff1614611907576001600360008773ffffffffffffffffffffffffffffffffffffffff1673ffffffffffffffffffffffffffffffffffffffff168152602001908152602001600020600082825401925050819055505b846002600086815260200190815260200160002060006101000a81548173ffffffffffffffffffffffffffffffffffffffff021916908373ffffffffffffffffffffffffffffffffffffffff160217905550838573ffffffffffffffffffffffffffffffffffffffff168273ffffffffffffffffffffffffffffffffffffffff167fddf252ad1be2c89b69c2b068fc378daa952ba7f163c4a11628f55a4df523b3ef60405160405180910390a4809150509392505050565b600073ffffffffffffffffffffffffffffffffffffffff168273ffffffffffffffffffffffffffffffffffffffff1603611a315760006040517f64a0ae92000000000000000000000000000000000000000000000000000000008152600401611a289190612818565b60405180910390fd5b6000611a3f838360006117a5565b9050600073ffffffffffffffffffffffffffffffffffffffff168173ffffffffffffffffffffffffffffffffffffffff1614611ab35760006040517f73c6ac6e000000000000000000000000000000000000000000000000000000008152600401611aaa9190612818565b60405180910390fd5b505050565b600073ffffffffffffffffffffffffffffffffffffffff168273ffffffffffffffffffffffffffffffffffffffff1603611b2957816040517f5b08ba18000000000000000000000000000000000000000000000000000000008152600401611b209190612818565b60405180910390fd5b80600560008573ffffffffffffffffffffffffffffffffffffffff1673ffffffffffffffffffffffffffffffffffffffff16815260200190815260200160002060008473ffffffffffffffffffffffffffffffffffffffff1673ffffffffffffffffffffffffffffffffffffffff16815260200190815260200160002060006101000a81548160ff0219169083151502179055508173ffffffffffffffffffffffffffffffffffffffff168373ffffffffffffffffffffffffffffffffffffffff167f17307eab39ab6107e8899845ad3d59bd9653f200f220920489ca2b5937696c3183604051611c1a91906126a7565b60405180910390a3505050565b60008373ffffffffffffffffffffffffffffffffffffffff163b1115611dd8578273ffffffffffffffffffffffffffffffffffffffff1663150b7a02611c6b61178b565b8685856040518563ffffffff1660e01b8152600401611c8d949392919061346b565b6020604051808303816000875af1925050508015611cc957506040513d601f19601f82011682018060405250810190611cc691906134cc565b60015b611d4d573d8060008114611cf9576040519150601f19603f3d011682016040523d82523d6000602084013e611cfe565b606091505b506000815103611d4557836040517f64a0ae92000000000000000000000000000000000000000000000000000000008152600401611d3c9190612818565b60405180910390fd5b805181602001fd5b63150b7a0260e01b7bffffffffffffffffffffffffffffffffffffffffffffffffffffffff1916817bffffffffffffffffffffffffffffffffffffffffffffffffffffffff191614611dd657836040517f64a0ae92000000000000000000000000000000000000000000000000000000008152600401611dcd9190612818565b60405180910390fd5b505b50505050565b606060405180602001604052806000815250905090565b606060006001611e048461238f565b01905060008167ffffffffffffffff811115611e2357611e22612b69565b5b6040519080825280601f01601f191660200182016040528015611e555781602001600182028036833780820191505090505b509050600082602001820190505b600115611eb8578080600190039150507f3031323334353637383961626364656600000000000000000000000000000000600a86061a8153600a8581611eac57611eab6131bb565b5b04945060008503611e63575b819350505050919050565b611f5981604051602401611ed7919061292e565b6040516020818303038152906040527ff82c50f1000000000000000000000000000000000000000000000000000000007bffffffffffffffffffffffffffffffffffffffffffffffffffffffff19166020820180517bffffffffffffffffffffffffffffffffffffffffffffffffffffffff83818316178352505050506124e2565b50565b600073ffffffffffffffffffffffffffffffffffffffff168273ffffffffffffffffffffffffffffffffffffffff1603611fce5760006040517f64a0ae92000000000000000000000000000000000000000000000000000000008152600401611fc59190612818565b60405180910390fd5b6000611fdc838360006117a5565b9050600073ffffffffffffffffffffffffffffffffffffffff168173ffffffffffffffffffffffffffffffffffffffff160361204f57816040517f7e273289000000000000000000000000000000000000000000000000000000008152600401612046919061292e565b60405180910390fd5b8373ffffffffffffffffffffffffffffffffffffffff168173ffffffffffffffffffffffffffffffffffffffff16146120c3578382826040517f64283d7b0000000000000000000000000000000000000000000000000000000081526004016120ba93929190612e31565b60405180910390fd5b50505050565b60006002600083815260200190815260200160002060009054906101000a900473ffffffffffffffffffffffffffffffffffffffff169050919050565b808061213f5750600073ffffffffffffffffffffffffffffffffffffffff168273ffffffffffffffffffffffffffffffffffffffff1614155b1561227357600061214f846116c6565b9050600073ffffffffffffffffffffffffffffffffffffffff168373ffffffffffffffffffffffffffffffffffffffff16141580156121ba57508273ffffffffffffffffffffffffffffffffffffffff168173ffffffffffffffffffffffffffffffffffffffff1614155b80156121cd57506121cb8184611011565b155b1561220f57826040517fa9fbf51f0000000000000000000000000000000000000000000000000000000081526004016122069190612818565b60405180910390fd5b811561227157838573ffffffffffffffffffffffffffffffffffffffff168273ffffffffffffffffffffffffffffffffffffffff167f8c5be1e5ebec7d5bd14f71427d1e84f3dd0314c0f7b2291e5b200ac8c7c3b92560405160405180910390a45b505b836004600085815260200190815260200160002060006101000a81548173ffffffffffffffffffffffffffffffffffffffff021916908373ffffffffffffffffffffffffffffffffffffffff16021790555050505050565b6122d68383836124fc565b61238a57600073ffffffffffffffffffffffffffffffffffffffff168373ffffffffffffffffffffffffffffffffffffffff160361234b57806040517f7e273289000000000000000000000000000000000000000000000000000000008152600401612342919061292e565b60405180910390fd5b81816040517f177e802f0000000000000000000000000000000000000000000000000000000081526004016123819291906134f9565b60405180910390fd5b505050565b600080600090507a184f03e93ff9f4daa797ed6e38ed64bf6a1f01000000000000000083106123ed577a184f03e93ff9f4daa797ed6e38ed64bf6a1f01000000000000000083816123e3576123e26131bb565b5b0492506040810190505b6d04ee2d6d415b85acef8100000000831061242a576d04ee2d6d415b85acef810000000083816124205761241f6131bb565b5b0492506020810190505b662386f26fc10000831061245957662386f26fc10000838161244f5761244e6131bb565b5b0492506010810190505b6305f5e1008310612482576305f5e1008381612478576124776131bb565b5b0492506008810190505b61271083106124a757612710838161249d5761249c6131bb565b5b0492506004810190505b606483106124ca57606483816124c0576124bf6131bb565b5b0492506002810190505b600a83106124d9576001810190505b80915050919050565b6124f9816124f16125bd6125de565b63ffffffff16565b50565b60008073ffffffffffffffffffffffffffffffffffffffff168373ffffffffffffffffffffffffffffffffffffffff16141580156125b457508273ffffffffffffffffffffffffffffffffffffffff168473ffffffffffffffffffffffffffffffffffffffff16148061257557506125748484611011565b5b806125b357508273ffffffffffffffffffffffffffffffffffffffff1661259b8361174e565b73ffffffffffffffffffffffffffffffffffffffff16145b5b90509392505050565b60006a636f6e736f6c652e6c6f679050600080835160208501845afa505050565b6125e9819050919050565b6125f1613522565b565b6000604051905090565b600080fd5b600080fd5b60007fffffffff0000000000000000000000000000000000000000000000000000000082169050919050565b61263c81612607565b811461264757600080fd5b50565b60008135905061265981612633565b92915050565b600060208284031215612675576126746125fd565b5b60006126838482850161264a565b91505092915050565b60008115159050919050565b6126a18161268c565b82525050565b60006020820190506126bc6000830184612698565b92915050565b600081519050919050565b600082825260208201905092915050565b60005b838110156126fc5780820151818401526020810190506126e1565b60008484015250505050565b6000601f19601f8301169050919050565b6000612724826126c2565b61272e81856126cd565b935061273e8185602086016126de565b61274781612708565b840191505092915050565b6000602082019050818103600083015261276c8184612719565b905092915050565b6000819050919050565b61278781612774565b811461279257600080fd5b50565b6000813590506127a48161277e565b92915050565b6000602082840312156127c0576127bf6125fd565b5b60006127ce84828501612795565b91505092915050565b600073ffffffffffffffffffffffffffffffffffffffff82169050919050565b6000612802826127d7565b9050919050565b612812816127f7565b82525050565b600060208201905061282d6000830184612809565b92915050565b61283c816127f7565b811461284757600080fd5b50565b60008135905061285981612833565b92915050565b60008060408385031215612876576128756125fd565b5b60006128848582860161284a565b925050602061289585828601612795565b9150509250929050565b6000806000606084860312156128b8576128b76125fd565b5b60006128c68682870161284a565b93505060206128d78682870161284a565b92505060406128e886828701612795565b9150509250925092565b600060208284031215612908576129076125fd565b5b60006129168482850161284a565b91505092915050565b61292881612774565b82525050565b6000602082019050612943600083018461291f565b92915050565b600080604083850312156129605761295f6125fd565b5b600061296e85828601612795565b925050602061297f85828601612795565b9150509250929050565b6129928161268c565b811461299d57600080fd5b50565b6000813590506129af81612989565b92915050565b600080604083850312156129cc576129cb6125fd565b5b60006129da8582860161284a565b92505060206129eb858286016129a0565b9150509250929050565b6000608082019050612a0a6000830187612809565b612a176020830186612698565b612a24604083018561291f565b612a31606083018461291f565b95945050505050565b6000608082019050612a4f6000830187612809565b612a5c602083018661291f565b612a69604083018561291f565b612a766060830184612698565b95945050505050565b600081519050919050565b600082825260208201905092915050565b6000819050602082019050919050565b612ab481612774565b82525050565b6000612ac68383612aab565b60208301905092915050565b6000602082019050919050565b6000612aea82612a7f565b612af48185612a8a565b9350612aff83612a9b565b8060005b83811015612b30578151612b178882612aba565b9750612b2283612ad2565b925050600181019050612b03565b5085935050505092915050565b60006020820190508181036000830152612b578184612adf565b905092915050565b600080fd5b600080fd5b7f4e487b7100000000000000000000000000000000000000000000000000000000600052604160045260246000fd5b612ba182612708565b810181811067ffffffffffffffff82111715612bc057612bbf612b69565b5b80604052505050565b6000612bd36125f3565b9050612bdf8282612b98565b919050565b600067ffffffffffffffff821115612bff57612bfe612b69565b5b612c0882612708565b9050602081019050919050565b82818337600083830152505050565b6000612c37612c3284612be4565b612bc9565b905082815260208101848484011115612c5357612c52612b64565b5b612c5e848285612c15565b509392505050565b600082601f830112612c7b57612c7a612b5f565b5b8135612c8b848260208601612c24565b91505092915050565b60008060008060808587031215612cae57612cad6125fd565b5b6000612cbc8782880161284a565b9450506020612ccd8782880161284a565b9350506040612cde87828801612795565b925050606085013567ffffffffffffffff811115612cff57612cfe612602565b5b612d0b87828801612c66565b91505092959194509250565b60008060408385031215612d2e57612d2d6125fd565b5b6000612d3c8582860161284a565b9250506020612d4d8582860161284a565b9150509250929050565b6000819050919050565b6000612d7c612d77612d72846127d7565b612d57565b6127d7565b9050919050565b6000612d8e82612d61565b9050919050565b6000612da082612d83565b9050919050565b612db081612d95565b82525050565b6000602082019050612dcb6000830184612da7565b92915050565b7f4e487b7100000000000000000000000000000000000000000000000000000000600052602260045260246000fd5b60006002820490506001821680612e1857607f821691505b602082108103612e2b57612e2a612dd1565b5b50919050565b6000606082019050612e466000830186612809565b612e53602083018561291f565b612e606040830184612809565b949350505050565b7f596f75206861766520616c726561647920636c61696d6564207468652061697260008201527f64726f702e000000000000000000000000000000000000000000000000000000602082015250565b6000612ec46025836126cd565b9150612ecf82612e68565b604082019050919050565b60006020820190508181036000830152612ef381612eb7565b9050919050565b7f4e487b7100000000000000000000000000000000000000000000000000000000600052601160045260246000fd5b6000612f3482612774565b91507fffffffffffffffffffffffffffffffffffffffffffffffffffffffffffffffff8203612f6657612f65612efa565b5b600182019050919050565b6000819050919050565b6000612f8682612f71565b91507f7fffffffffffffffffffffffffffffffffffffffffffffffffffffffffffffff8203612fb857612fb7612efa565b5b600182019050919050565b7f596f7520617265206e6f7420746865206f776e6572206f66207468697320686f60008201527f7573652e00000000000000000000000000000000000000000000000000000000602082015250565b600061301f6024836126cd565b915061302a82612fc3565b604082019050919050565b6000602082019050818103600083015261304e81613012565b9050919050565b7f486f75736520697320616c7265616479206c69737465642e0000000000000000600082015250565b600061308b6018836126cd565b915061309682613055565b602082019050919050565b600060208201905081810360008301526130ba8161307e565b9050919050565b60006060820190506130d6600083018661291f565b6130e3602083018561291f565b6130f06040830184612809565b949350505050565b7f4e487b7100000000000000000000000000000000000000000000000000000000600052603260045260246000fd5b600081905092915050565b600061313d826126c2565b6131478185613127565b93506131578185602086016126de565b80840191505092915050565b600061316f8285613132565b915061317b8284613132565b91508190509392505050565b600061319282612774565b915061319d83612774565b92508282039050818111156131b5576131b4612efa565b5b92915050565b7f4e487b7100000000000000000000000000000000000000000000000000000000600052601260045260246000fd5b60006131f582612774565b915061320083612774565b9250826132105761320f6131bb565b5b828204905092915050565b600061322682612774565b915061323183612774565b925082820261323f81612774565b9150828204841483151761325657613255612efa565b5b5092915050565b7f5468697320686f75736520686173206c697374656420666f7220746f6f206c6f60008201527f6e672074696d6520746f20626520736f6c640000000000000000000000000000602082015250565b60006132b96032836126cd565b91506132c48261325d565b604082019050919050565b600060208201905081810360008301526132e8816132ac565b9050919050565b6000815190506132fe8161277e565b92915050565b60006020828403121561331a576133196125fd565b5b6000613328848285016132ef565b91505092915050565b7f496e73756666696369656e7420746f6b656e2062616c616e6365000000000000600082015250565b6000613367601a836126cd565b915061337282613331565b602082019050919050565b600060208201905081810360008301526133968161335a565b9050919050565b60006060820190506133b26000830186612809565b6133bf6020830185612809565b6133cc604083018461291f565b949350505050565b6000815190506133e381612989565b92915050565b6000602082840312156133ff576133fe6125fd565b5b600061340d848285016133d4565b91505092915050565b600081519050919050565b600082825260208201905092915050565b600061343d82613416565b6134478185613421565b93506134578185602086016126de565b61346081612708565b840191505092915050565b60006080820190506134806000830187612809565b61348d6020830186612809565b61349a604083018561291f565b81810360608301526134ac8184613432565b905095945050505050565b6000815190506134c681612633565b92915050565b6000602082840312156134e2576134e16125fd565b5b60006134f0848285016134b7565b91505092915050565b600060408201905061350e6000830185612809565b61351b602083018461291f565b9392505050565b7f4e487b7100000000000000000000000000000000000000000000000000000000600052605160045260246000fdfea2646970667358221220336df5bcf9151f779ce09858e5eaf64a651777c84ee58de9c96429e871e211be64736f6c6343000814003360806040523480156200001157600080fd5b506040518060400160405280600981526020017f526f6f6d546f6b656e00000000000000000000000000000000000000000000008152506040518060400160405280600381526020017f52544b000000000000000000000000000000000000000000000000000000000081525081600390816200008f91906200036d565b508060049081620000a191906200036d565b505050606460058190555033600660006101000a81548173ffffffffffffffffffffffffffffffffffffffff021916908373ffffffffffffffffffffffffffffffffffffffff16021790555062000454565b600081519050919050565b7f4e487b7100000000000000000000000000000000000000000000000000000000600052604160045260246000fd5b7f4e487b7100000000000000000000000000000000000000000000000000000000600052602260045260246000fd5b600060028204905060018216806200017557607f821691505b6020821081036200018b576200018a6200012d565b5b50919050565b60008190508160005260206000209050919050565b60006020601f8301049050919050565b600082821b905092915050565b600060088302620001f57fffffffffffffffffffffffffffffffffffffffffffffffffffffffffffffffff82620001b6565b620002018683620001b6565b95508019841693508086168417925050509392505050565b6000819050919050565b6000819050919050565b60006200024e62000248620002428462000219565b62000223565b62000219565b9050919050565b6000819050919050565b6200026a836200022d565b62000282620002798262000255565b848454620001c3565b825550505050565b600090565b620002996200028a565b620002a68184846200025f565b505050565b5b81811015620002ce57620002c26000826200028f565b600181019050620002ac565b5050565b601f8211156200031d57620002e78162000191565b620002f284620001a6565b8101602085101562000302578190505b6200031a6200031185620001a6565b830182620002ab565b50505b505050565b600082821c905092915050565b6000620003426000198460080262000322565b1980831691505092915050565b60006200035d83836200032f565b9150826002028217905092915050565b6200037882620000f3565b67ffffffffffffffff811115620003945762000393620000fe565b5b620003a082546200015c565b620003ad828285620002d2565b600060209050601f831160018114620003e55760008415620003d0578287015190505b620003dc85826200034f565b8655506200044c565b601f198416620003f58662000191565b60005b828110156200041f57848901518255600182019150602085019450602081019050620003f8565b868310156200043f57848901516200043b601f8916826200032f565b8355505b6001600288020188555050505b505050505050565b6114e980620004646000396000f3fe6080604052600436106100c65760003560e01c806370a082311161007f57806395d89b411161005957806395d89b411461026a578063a9059cbb14610295578063cc163153146102d2578063dd62ed3e146102fb576100cd565b806370a08231146101f85780637ffdf53e1461023557806393c3356e14610260576100cd565b806306fdde03146100d2578063095ea7b3146100fd57806318160ddd1461013a57806323b872dd14610165578063313ce567146101a25780634df8ccb1146101cd576100cd565b366100cd57005b600080fd5b3480156100de57600080fd5b506100e7610338565b6040516100f49190610f04565b60405180910390f35b34801561010957600080fd5b50610124600480360381019061011f9190610fbf565b6103ca565b604051610131919061101a565b60405180910390f35b34801561014657600080fd5b5061014f6103ed565b60405161015c9190611044565b60405180910390f35b34801561017157600080fd5b5061018c6004803603810190610187919061105f565b6103f7565b604051610199919061101a565b60405180910390f35b3480156101ae57600080fd5b506101b7610426565b6040516101c491906110ce565b60405180910390f35b3480156101d957600080fd5b506101e261042f565b6040516101ef91906110f8565b60405180910390f35b34801561020457600080fd5b5061021f600480360381019061021a9190611113565b610455565b60405161022c9190611044565b60405180910390f35b34801561024157600080fd5b5061024a61049d565b6040516102579190611044565b60405180910390f35b6102686104a3565b005b34801561027657600080fd5b5061027f610553565b60405161028c9190610f04565b60405180910390f35b3480156102a157600080fd5b506102bc60048036038101906102b79190610fbf565b6105e5565b6040516102c9919061101a565b60405180910390f35b3480156102de57600080fd5b506102f960048036038101906102f49190611140565b610608565b005b34801561030757600080fd5b50610322600480360381019061031d919061116d565b61074b565b60405161032f9190611044565b60405180910390f35b606060038054610347906111dc565b80601f0160208091040260200160405190810160405280929190818152602001828054610373906111dc565b80156103c05780601f10610395576101008083540402835291602001916103c0565b820191906000526020600020905b8154815290600101906020018083116103a357829003601f168201915b5050505050905090565b6000806103d56107d2565b90506103e28185856107da565b600191505092915050565b6000600254905090565b6000806104026107d2565b905061040f8582856107ec565b61041a858585610880565b60019150509392505050565b60006012905090565b600660009054906101000a900473ffffffffffffffffffffffffffffffffffffffff1681565b60008060008373ffffffffffffffffffffffffffffffffffffffff1673ffffffffffffffffffffffffffffffffffffffff168152602001908152602001600020549050919050565b60055481565b600034116104e6576040517f08c379a00000000000000000000000000000000000000000000000000000000081526004016104dd90611259565b60405180910390fd5b6000670de0b6b3a7640000600554346104ff91906112a8565b6105099190611319565b90506105153382610974565b7fd209e032bcf7ee1571736b6cca6adaa3c4a9b59c06d396c6180ba49d983b28d03334836040516105489392919061134a565b60405180910390a150565b606060048054610562906111dc565b80601f016020809104026020016040519081016040528092919081815260200182805461058e906111dc565b80156105db5780601f106105b0576101008083540402835291602001916105db565b820191906000526020600020905b8154815290600101906020018083116105be57829003601f168201915b5050505050905090565b6000806105f06107d2565b90506105fd818585610880565b600191505092915050565b6000811161064b576040517f08c379a0000000000000000000000000000000000000000000000000000000008152600401610642906113f3565b60405180910390fd5b8061065533610455565b1015610696576040517f08c379a000000000000000000000000000000000000000000000000000000000815260040161068d9061145f565b60405180910390fd5b6000600554670de0b6b3a7640000836106af91906112a8565b6106b99190611319565b90506106c533836109f6565b3373ffffffffffffffffffffffffffffffffffffffff166108fc829081150290604051600060405180830381858888f1935050505015801561070b573d6000803e3d6000fd5b507fec294e8cc60c12c4c5b9d3fefb6fc2726f472ddcb5c54d1f0690fef5760e21e833828460405161073f9392919061134a565b60405180910390a15050565b6000600160008473ffffffffffffffffffffffffffffffffffffffff1673ffffffffffffffffffffffffffffffffffffffff16815260200190815260200160002060008373ffffffffffffffffffffffffffffffffffffffff1673ffffffffffffffffffffffffffffffffffffffff16815260200190815260200160002054905092915050565b600033905090565b6107e78383836001610a78565b505050565b60006107f8848461074b565b90507fffffffffffffffffffffffffffffffffffffffffffffffffffffffffffffffff811461087a578181101561086a578281836040517ffb8f41b20000000000000000000000000000000000000000000000000000000081526004016108619392919061134a565b60405180910390fd5b61087984848484036000610a78565b5b50505050565b600073ffffffffffffffffffffffffffffffffffffffff168373ffffffffffffffffffffffffffffffffffffffff16036108f25760006040517f96c6fd1e0000000000000000000000000000000000000000000000000000000081526004016108e991906110f8565b60405180910390fd5b600073ffffffffffffffffffffffffffffffffffffffff168273ffffffffffffffffffffffffffffffffffffffff16036109645760006040517fec442f0500000000000000000000000000000000000000000000000000000000815260040161095b91906110f8565b60405180910390fd5b61096f838383610c4f565b505050565b600073ffffffffffffffffffffffffffffffffffffffff168273ffffffffffffffffffffffffffffffffffffffff16036109e65760006040517fec442f050000000000000000000000000000000000000000000000000000000081526004016109dd91906110f8565b60405180910390fd5b6109f260008383610c4f565b5050565b600073ffffffffffffffffffffffffffffffffffffffff168273ffffffffffffffffffffffffffffffffffffffff1603610a685760006040517f96c6fd1e000000000000000000000000000000000000000000000000000000008152600401610a5f91906110f8565b60405180910390fd5b610a7482600083610c4f565b5050565b600073ffffffffffffffffffffffffffffffffffffffff168473ffffffffffffffffffffffffffffffffffffffff1603610aea5760006040517fe602df05000000000000000000000000000000000000000000000000000000008152600401610ae191906110f8565b60405180910390fd5b600073ffffffffffffffffffffffffffffffffffffffff168373ffffffffffffffffffffffffffffffffffffffff1603610b5c5760006040517f94280d62000000000000000000000000000000000000000000000000000000008152600401610b5391906110f8565b60405180910390fd5b81600160008673ffffffffffffffffffffffffffffffffffffffff1673ffffffffffffffffffffffffffffffffffffffff16815260200190815260200160002060008573ffffffffffffffffffffffffffffffffffffffff1673ffffffffffffffffffffffffffffffffffffffff168152602001908152602001600020819055508015610c49578273ffffffffffffffffffffffffffffffffffffffff168473ffffffffffffffffffffffffffffffffffffffff167f8c5be1e5ebec7d5bd14f71427d1e84f3dd0314c0f7b2291e5b200ac8c7c3b92584604051610c409190611044565b60405180910390a35b50505050565b600073ffffffffffffffffffffffffffffffffffffffff168373ffffffffffffffffffffffffffffffffffffffff1603610ca1578060026000828254610c95919061147f565b92505081905550610d74565b60008060008573ffffffffffffffffffffffffffffffffffffffff1673ffffffffffffffffffffffffffffffffffffffff16815260200190815260200160002054905081811015610d2d578381836040517fe450d38c000000000000000000000000000000000000000000000000000000008152600401610d249392919061134a565b60405180910390fd5b8181036000808673ffffffffffffffffffffffffffffffffffffffff1673ffffffffffffffffffffffffffffffffffffffff16815260200190815260200160002081905550505b600073ffffffffffffffffffffffffffffffffffffffff168273ffffffffffffffffffffffffffffffffffffffff1603610dbd5780600260008282540392505081905550610e0a565b806000808473ffffffffffffffffffffffffffffffffffffffff1673ffffffffffffffffffffffffffffffffffffffff168152602001908152602001600020600082825401925050819055505b8173ffffffffffffffffffffffffffffffffffffffff168373ffffffffffffffffffffffffffffffffffffffff167fddf252ad1be2c89b69c2b068fc378daa952ba7f163c4a11628f55a4df523b3ef83604051610e679190611044565b60405180910390a3505050565b600081519050919050565b600082825260208201905092915050565b60005b83811015610eae578082015181840152602081019050610e93565b60008484015250505050565b6000601f19601f8301169050919050565b6000610ed682610e74565b610ee08185610e7f565b9350610ef0818560208601610e90565b610ef981610eba565b840191505092915050565b60006020820190508181036000830152610f1e8184610ecb565b905092915050565b600080fd5b600073ffffffffffffffffffffffffffffffffffffffff82169050919050565b6000610f5682610f2b565b9050919050565b610f6681610f4b565b8114610f7157600080fd5b50565b600081359050610f8381610f5d565b92915050565b6000819050919050565b610f9c81610f89565b8114610fa757600080fd5b50565b600081359050610fb981610f93565b92915050565b60008060408385031215610fd657610fd5610f26565b5b6000610fe485828601610f74565b9250506020610ff585828601610faa565b9150509250929050565b60008115159050919050565b61101481610fff565b82525050565b600060208201905061102f600083018461100b565b92915050565b61103e81610f89565b82525050565b60006020820190506110596000830184611035565b92915050565b60008060006060848603121561107857611077610f26565b5b600061108686828701610f74565b935050602061109786828701610f74565b92505060406110a886828701610faa565b9150509250925092565b600060ff82169050919050565b6110c8816110b2565b82525050565b60006020820190506110e360008301846110bf565b92915050565b6110f281610f4b565b82525050565b600060208201905061110d60008301846110e9565b92915050565b60006020828403121561112957611128610f26565b5b600061113784828501610f74565b91505092915050565b60006020828403121561115657611155610f26565b5b600061116484828501610faa565b91505092915050565b6000806040838503121561118457611183610f26565b5b600061119285828601610f74565b92505060206111a385828601610f74565b9150509250929050565b7f4e487b7100000000000000000000000000000000000000000000000000000000600052602260045260246000fd5b600060028204905060018216806111f457607f821691505b602082108103611207576112066111ad565b5b50919050565b7f4e65656420746f2073656e642045544820746f2067657420746f6b656e730000600082015250565b6000611243601e83610e7f565b915061124e8261120d565b602082019050919050565b6000602082019050818103600083015261127281611236565b9050919050565b7f4e487b7100000000000000000000000000000000000000000000000000000000600052601160045260246000fd5b60006112b382610f89565b91506112be83610f89565b92508282026112cc81610f89565b915082820484148315176112e3576112e2611279565b5b5092915050565b7f4e487b7100000000000000000000000000000000000000000000000000000000600052601260045260246000fd5b600061132482610f89565b915061132f83610f89565b92508261133f5761133e6112ea565b5b828204905092915050565b600060608201905061135f60008301866110e9565b61136c6020830185611035565b6113796040830184611035565b949350505050565b7f596f75206e65656420746f207370656369667920616e20616d6f756e74206f6660008201527f20746f6b656e7300000000000000000000000000000000000000000000000000602082015250565b60006113dd602783610e7f565b91506113e882611381565b604082019050919050565b6000602082019050818103600083015261140c816113d0565b9050919050565b7f496e73756666696369656e7420746f6b656e2062616c616e6365000000000000600082015250565b6000611449601a83610e7f565b915061145482611413565b602082019050919050565b600060208201905081810360008301526114788161143c565b9050919050565b600061148a82610f89565b915061149583610f89565b92508282019050808211156114ad576114ac611279565b5b9291505056fea26469706673582212204ba82a1eff9a6d8f53a0d1dca2be03ad48781962a051a43de17682e329d4c1ba64736f6c63430008140033",
  "linkReferences": {},
  "deployedLinkReferences": {}
}