{
  "_format": "hh-sol-artifact-1",
  "contractName": "BuyMyRoom",
  "sourceName": "contracts/BuyMyRoom.sol",
  "abi": [
    {
      "inputs": [],
      "stateMutability": "nonpayable",
      "type": "constructor"
    },
    {
      "inputs": [
        {
          "internalType": "address",
          "name": "sender",
          "type": "address"
        },
        {
          "internalType": "uint256",
          "name": "tokenId",
          "type": "uint256"
        },
        {
          "internalType": "address",
          "name": "owner",
          "type": "address"
        }
      ],
      "name": "ERC721IncorrectOwner",
      "type": "error"
    },
    {
      "inputs": [
        {
          "internalType": "address",
          "name": "operator",
          "type": "address"
        },
        {
          "internalType": "uint256",
          "name": "tokenId",
          "type": "uint256"
        }
      ],
      "name": "ERC721InsufficientApproval",
      "type": "error"
    },
    {
      "inputs": [
        {
          "internalType": "address",
          "name": "approver",
          "type": "address"
        }
      ],
      "name": "ERC721InvalidApprover",
      "type": "error"
    },
    {
      "inputs": [
        {
          "internalType": "address",
          "name": "operator",
          "type": "address"
        }
      ],
      "name": "ERC721InvalidOperator",
      "type": "error"
    },
    {
      "inputs": [
        {
          "internalType": "address",
          "name": "owner",
          "type": "address"
        }
      ],
      "name": "ERC721InvalidOwner",
      "type": "error"
    },
    {
      "inputs": [
        {
          "internalType": "address",
          "name": "receiver",
          "type": "address"
        }
      ],
      "name": "ERC721InvalidReceiver",
      "type": "error"
    },
    {
      "inputs": [
        {
          "internalType": "address",
          "name": "sender",
          "type": "address"
        }
      ],
      "name": "ERC721InvalidSender",
      "type": "error"
    },
    {
      "inputs": [
        {
          "internalType": "uint256",
          "name": "tokenId",
          "type": "uint256"
        }
      ],
      "name": "ERC721NonexistentToken",
      "type": "error"
    },
    {
      "anonymous": false,
      "inputs": [
        {
          "indexed": true,
          "internalType": "address",
          "name": "owner",
          "type": "address"
        },
        {
          "indexed": true,
          "internalType": "address",
          "name": "approved",
          "type": "address"
        },
        {
          "indexed": true,
          "internalType": "uint256",
          "name": "tokenId",
          "type": "uint256"
        }
      ],
      "name": "Approval",
      "type": "event"
    },
    {
      "anonymous": false,
      "inputs": [
        {
          "indexed": true,
          "internalType": "address",
          "name": "owner",
          "type": "address"
        },
        {
          "indexed": true,
          "internalType": "address",
          "name": "operator",
          "type": "address"
        },
        {
          "indexed": false,
          "internalType": "bool",
          "name": "approved",
          "type": "bool"
        }
      ],
      "name": "ApprovalForAll",
      "type": "event"
    },
    {
      "anonymous": false,
      "inputs": [
        {
          "indexed": false,
          "internalType": "uint256",
          "name": "tokenId",
          "type": "uint256"
        },
        {
          "indexed": false,
          "internalType": "uint256",
          "name": "price",
          "type": "uint256"
        },
        {
          "indexed": false,
          "internalType": "address",
          "name": "owner",
          "type": "address"
        }
      ],
      "name": "HouseListed",
      "type": "event"
    },
    {
      "anonymous": false,
      "inputs": [
        {
          "indexed": false,
          "internalType": "uint256",
          "name": "tokenId",
          "type": "uint256"
        },
        {
          "indexed": false,
          "internalType": "uint256",
          "name": "price",
          "type": "uint256"
        },
        {
          "indexed": false,
          "internalType": "address",
          "name": "buyer",
          "type": "address"
        }
      ],
      "name": "HouseSold",
      "type": "event"
    },
    {
      "anonymous": false,
      "inputs": [
        {
          "indexed": true,
          "internalType": "address",
          "name": "from",
          "type": "address"
        },
        {
          "indexed": true,
          "internalType": "address",
          "name": "to",
          "type": "address"
        },
        {
          "indexed": true,
          "internalType": "uint256",
          "name": "tokenId",
          "type": "uint256"
        }
      ],
      "name": "Transfer",
      "type": "event"
    },
    {
      "inputs": [],
      "name": "airdrop",
      "outputs": [],
      "stateMutability": "nonpayable",
      "type": "function"
    },
    {
      "inputs": [
        {
          "internalType": "address",
          "name": "to",
          "type": "address"
        },
        {
          "internalType": "uint256",
          "name": "tokenId",
          "type": "uint256"
        }
      ],
      "name": "approve",
      "outputs": [],
      "stateMutability": "nonpayable",
      "type": "function"
    },
    {
      "inputs": [
        {
          "internalType": "address",
          "name": "owner",
          "type": "address"
        }
      ],
      "name": "balanceOf",
      "outputs": [
        {
          "internalType": "uint256",
          "name": "",
          "type": "uint256"
        }
      ],
      "stateMutability": "view",
      "type": "function"
    },
    {
      "inputs": [
        {
          "internalType": "uint256",
          "name": "tokenId",
          "type": "uint256"
        }
      ],
      "name": "buyHouse",
      "outputs": [],
      "stateMutability": "payable",
      "type": "function"
    },
    {
      "inputs": [
        {
          "internalType": "address",
          "name": "",
          "type": "address"
        }
      ],
      "name": "claimedList",
      "outputs": [
        {
          "internalType": "bool",
          "name": "",
          "type": "bool"
        }
      ],
      "stateMutability": "view",
      "type": "function"
    },
    {
      "inputs": [],
      "name": "feeRate",
      "outputs": [
        {
          "internalType": "uint256",
          "name": "",
          "type": "uint256"
        }
      ],
      "stateMutability": "view",
      "type": "function"
    },
    {
      "inputs": [
        {
          "internalType": "uint256",
          "name": "tokenId",
          "type": "uint256"
        }
      ],
      "name": "getApproved",
      "outputs": [
        {
          "internalType": "address",
          "name": "",
          "type": "address"
        }
      ],
      "stateMutability": "view",
      "type": "function"
    },
    {
      "inputs": [
        {
          "internalType": "uint256",
          "name": "tokenId",
          "type": "uint256"
        }
      ],
      "name": "getHouseInfo",
      "outputs": [
        {
          "internalType": "address",
          "name": "owner",
          "type": "address"
        },
        {
          "internalType": "bool",
          "name": "isListed",
          "type": "bool"
        },
        {
          "internalType": "uint256",
          "name": "price",
          "type": "uint256"
        },
        {
          "internalType": "uint256",
          "name": "listTimestamp",
          "type": "uint256"
        }
      ],
      "stateMutability": "view",
      "type": "function"
    },
    {
      "inputs": [],
      "name": "getListedHouses",
      "outputs": [
        {
          "internalType": "uint256[]",
          "name": "",
          "type": "uint256[]"
        }
      ],
      "stateMutability": "view",
      "type": "function"
    },
    {
      "inputs": [],
      "name": "getMyHouses",
      "outputs": [
        {
          "internalType": "uint256[]",
          "name": "",
          "type": "uint256[]"
        }
      ],
      "stateMutability": "view",
      "type": "function"
    },
    {
      "inputs": [],
      "name": "helloworld",
      "outputs": [
        {
          "internalType": "string",
          "name": "",
          "type": "string"
        }
      ],
      "stateMutability": "pure",
      "type": "function"
    },
    {
      "inputs": [
        {
          "internalType": "uint256",
          "name": "",
          "type": "uint256"
        }
      ],
      "name": "houses",
      "outputs": [
        {
          "internalType": "address",
          "name": "owner",
          "type": "address"
        },
        {
          "internalType": "uint256",
          "name": "listedTimestamp",
          "type": "uint256"
        },
        {
          "internalType": "uint256",
          "name": "price",
          "type": "uint256"
        },
        {
          "internalType": "bool",
          "name": "isListed",
          "type": "bool"
        }
      ],
      "stateMutability": "view",
      "type": "function"
    },
    {
      "inputs": [
        {
          "internalType": "address",
          "name": "owner",
          "type": "address"
        },
        {
          "internalType": "address",
          "name": "operator",
          "type": "address"
        }
      ],
      "name": "isApprovedForAll",
      "outputs": [
        {
          "internalType": "bool",
          "name": "",
          "type": "bool"
        }
      ],
      "stateMutability": "view",
      "type": "function"
    },
    {
      "inputs": [
        {
          "internalType": "uint256",
          "name": "tokenId",
          "type": "uint256"
        },
        {
          "internalType": "uint256",
          "name": "price",
          "type": "uint256"
        }
      ],
      "name": "listHouse",
      "outputs": [],
      "stateMutability": "nonpayable",
      "type": "function"
    },
    {
      "inputs": [],
      "name": "name",
      "outputs": [
        {
          "internalType": "string",
          "name": "",
          "type": "string"
        }
      ],
      "stateMutability": "view",
      "type": "function"
    },
    {
      "inputs": [],
      "name": "nextTokenId",
      "outputs": [
        {
          "internalType": "uint256",
          "name": "",
          "type": "uint256"
        }
      ],
      "stateMutability": "view",
      "type": "function"
    },
    {
      "inputs": [
        {
          "internalType": "uint256",
          "name": "tokenId",
          "type": "uint256"
        }
      ],
      "name": "ownerOf",
      "outputs": [
        {
          "internalType": "address",
          "name": "",
          "type": "address"
        }
      ],
      "stateMutability": "view",
      "type": "function"
    },
    {
      "inputs": [],
      "name": "platformOwner",
      "outputs": [
        {
          "internalType": "address",
          "name": "",
          "type": "address"
        }
      ],
      "stateMutability": "view",
      "type": "function"
    },
    {
      "inputs": [
        {
          "internalType": "address",
          "name": "from",
          "type": "address"
        },
        {
          "internalType": "address",
          "name": "to",
          "type": "address"
        },
        {
          "internalType": "uint256",
          "name": "tokenId",
          "type": "uint256"
        }
      ],
      "name": "safeTransferFrom",
      "outputs": [],
      "stateMutability": "nonpayable",
      "type": "function"
    },
    {
      "inputs": [
        {
          "internalType": "address",
          "name": "from",
          "type": "address"
        },
        {
          "internalType": "address",
          "name": "to",
          "type": "address"
        },
        {
          "internalType": "uint256",
          "name": "tokenId",
          "type": "uint256"
        },
        {
          "internalType": "bytes",
          "name": "data",
          "type": "bytes"
        }
      ],
      "name": "safeTransferFrom",
      "outputs": [],
      "stateMutability": "nonpayable",
      "type": "function"
    },
    {
      "inputs": [
        {
          "internalType": "address",
          "name": "operator",
          "type": "address"
        },
        {
          "internalType": "bool",
          "name": "approved",
          "type": "bool"
        }
      ],
      "name": "setApprovalForAll",
      "outputs": [],
      "stateMutability": "nonpayable",
      "type": "function"
    },
    {
      "inputs": [
        {
          "internalType": "bytes4",
          "name": "interfaceId",
          "type": "bytes4"
        }
      ],
      "name": "supportsInterface",
      "outputs": [
        {
          "internalType": "bool",
          "name": "",
          "type": "bool"
        }
      ],
      "stateMutability": "view",
      "type": "function"
    },
    {
      "inputs": [],
      "name": "symbol",
      "outputs": [
        {
          "internalType": "string",
          "name": "",
          "type": "string"
        }
      ],
      "stateMutability": "view",
      "type": "function"
    },
    {
      "inputs": [
        {
          "internalType": "uint256",
          "name": "tokenId",
          "type": "uint256"
        }
      ],
      "name": "tokenURI",
      "outputs": [
        {
          "internalType": "string",
          "name": "",
          "type": "string"
        }
      ],
      "stateMutability": "view",
      "type": "function"
    },
    {
      "inputs": [
        {
          "internalType": "address",
          "name": "from",
          "type": "address"
        },
        {
          "internalType": "address",
          "name": "to",
          "type": "address"
        },
        {
          "internalType": "uint256",
          "name": "tokenId",
          "type": "uint256"
        }
      ],
      "name": "transferFrom",
      "outputs": [],
      "stateMutability": "nonpayable",
      "type": "function"
    }
  ],
  "bytecode": "0x60806040523480156200001157600080fd5b506040518060400160405280600a81526020017f486f757365546f6b656e000000000000000000000000000000000000000000008152506040518060400160405280600381526020017f455448000000000000000000000000000000000000000000000000000000000081525081600090816200008f919062000375565b508060019081620000a1919062000375565b5050506001600881905550600160098190555033600a60006101000a81548173ffffffffffffffffffffffffffffffffffffffff021916908373ffffffffffffffffffffffffffffffffffffffff1602179055506200045c565b600081519050919050565b7f4e487b7100000000000000000000000000000000000000000000000000000000600052604160045260246000fd5b7f4e487b7100000000000000000000000000000000000000000000000000000000600052602260045260246000fd5b600060028204905060018216806200017d57607f821691505b60208210810362000193576200019262000135565b5b50919050565b60008190508160005260206000209050919050565b60006020601f8301049050919050565b600082821b905092915050565b600060088302620001fd7fffffffffffffffffffffffffffffffffffffffffffffffffffffffffffffffff82620001be565b620002098683620001be565b95508019841693508086168417925050509392505050565b6000819050919050565b6000819050919050565b600062000256620002506200024a8462000221565b6200022b565b62000221565b9050919050565b6000819050919050565b620002728362000235565b6200028a62000281826200025d565b848454620001cb565b825550505050565b600090565b620002a162000292565b620002ae81848462000267565b505050565b5b81811015620002d657620002ca60008262000297565b600181019050620002b4565b5050565b601f8211156200032557620002ef8162000199565b620002fa84620001ae565b810160208510156200030a578190505b620003226200031985620001ae565b830182620002b3565b50505b505050565b600082821c905092915050565b60006200034a600019846008026200032a565b1980831691505092915050565b600062000365838362000337565b9150826002028217905092915050565b6200038082620000fb565b67ffffffffffffffff8111156200039c576200039b62000106565b5b620003a8825462000164565b620003b5828285620002da565b600060209050601f831160018114620003ed5760008415620003d8578287015190505b620003e4858262000357565b86555062000454565b601f198416620003fd8662000199565b60005b82811015620004275784890151825560018201915060208501945060208101905062000400565b8683101562000447578489015162000443601f89168262000337565b8355505b6001600288020188555050505b505050505050565b6134ec806200046c6000396000f3fe6080604052600436106101665760003560e01c806395d89b41116100d1578063b14f1afd1161008a578063da7cbba311610064578063da7cbba314610556578063e985e9c514610593578063eddc4269146105d0578063f4dcb9c1146105ec57610166565b8063b14f1afd146104c5578063b88d4fde146104f0578063c87b56dd1461051957610166565b806395d89b411461039d578063978bbdb9146103c857806399b23178146103f3578063a22cb4651461041c578063ad50f56d14610445578063aeda852f1461048557610166565b80633884d635116101235780633884d6351461028d57806342842e0e146102a45780634df8ccb1146102cd5780636352211e146102f857806370a082311461033557806375794a3c1461037257610166565b806301ffc9a71461016b57806306fdde03146101a8578063081812fc146101d3578063095ea7b31461021057806323b872dd146102395780632f2f485914610262575b600080fd5b34801561017757600080fd5b50610192600480360381019061018d91906126df565b610617565b60405161019f9190612727565b60405180910390f35b3480156101b457600080fd5b506101bd6106f9565b6040516101ca91906127d2565b60405180910390f35b3480156101df57600080fd5b506101fa60048036038101906101f5919061282a565b61078b565b6040516102079190612898565b60405180910390f35b34801561021c57600080fd5b50610237600480360381019061023291906128df565b6107a7565b005b34801561024557600080fd5b50610260600480360381019061025b919061291f565b6107bd565b005b34801561026e57600080fd5b506102776108bf565b60405161028491906127d2565b60405180910390f35b34801561029957600080fd5b506102a26108fc565b005b3480156102b057600080fd5b506102cb60048036038101906102c6919061291f565b610ad6565b005b3480156102d957600080fd5b506102e2610af6565b6040516102ef9190612898565b60405180910390f35b34801561030457600080fd5b5061031f600480360381019061031a919061282a565b610b1c565b60405161032c9190612898565b60405180910390f35b34801561034157600080fd5b5061035c60048036038101906103579190612972565b610b2e565b60405161036991906129ae565b60405180910390f35b34801561037e57600080fd5b50610387610be8565b60405161039491906129ae565b60405180910390f35b3480156103a957600080fd5b506103b2610bee565b6040516103bf91906127d2565b60405180910390f35b3480156103d457600080fd5b506103dd610c80565b6040516103ea91906129ae565b60405180910390f35b3480156103ff57600080fd5b5061041a600480360381019061041591906129c9565b610c86565b005b34801561042857600080fd5b50610443600480360381019061043e9190612a35565b610e04565b005b34801561045157600080fd5b5061046c6004803603810190610467919061282a565b610e1a565b60405161047c9493929190612a75565b60405180910390f35b34801561049157600080fd5b506104ac60048036038101906104a7919061282a565b610eeb565b6040516104bc9493929190612aba565b60405180910390f35b3480156104d157600080fd5b506104da610f48565b6040516104e79190612bbd565b60405180910390f35b3480156104fc57600080fd5b5061051760048036038101906105129190612d14565b61103d565b005b34801561052557600080fd5b50610540600480360381019061053b919061282a565b61105a565b60405161054d91906127d2565b60405180910390f35b34801561056257600080fd5b5061057d60048036038101906105789190612972565b6110c3565b60405161058a9190612727565b60405180910390f35b34801561059f57600080fd5b506105ba60048036038101906105b59190612d97565b6110e3565b6040516105c79190612727565b60405180910390f35b6105ea60048036038101906105e5919061282a565b611177565b005b3480156105f857600080fd5b506106016114b3565b60405161060e9190612bbd565b60405180910390f35b60007f80ac58cd000000000000000000000000000000000000000000000000000000007bffffffffffffffffffffffffffffffffffffffffffffffffffffffff1916827bffffffffffffffffffffffffffffffffffffffffffffffffffffffff191614806106e257507f5b5e139f000000000000000000000000000000000000000000000000000000007bffffffffffffffffffffffffffffffffffffffffffffffffffffffff1916827bffffffffffffffffffffffffffffffffffffffffffffffffffffffff1916145b806106f257506106f182611643565b5b9050919050565b60606000805461070890612e06565b80601f016020809104026020016040519081016040528092919081815260200182805461073490612e06565b80156107815780601f1061075657610100808354040283529160200191610781565b820191906000526020600020905b81548152906001019060200180831161076457829003601f168201915b5050505050905090565b6000610796826116ad565b506107a082611735565b9050919050565b6107b982826107b4611772565b61177a565b5050565b600073ffffffffffffffffffffffffffffffffffffffff168273ffffffffffffffffffffffffffffffffffffffff160361082f5760006040517f64a0ae920000000000000000000000000000000000000000000000000000000081526004016108269190612898565b60405180910390fd5b6000610843838361083e611772565b61178c565b90508373ffffffffffffffffffffffffffffffffffffffff168173ffffffffffffffffffffffffffffffffffffffff16146108b9578382826040517f64283d7b0000000000000000000000000000000000000000000000000000000081526004016108b093929190612e37565b60405180910390fd5b50505050565b60606040518060400160405280600b81526020017f68656c6c6f20776f726c64000000000000000000000000000000000000000000815250905090565b600760003373ffffffffffffffffffffffffffffffffffffffff1673ffffffffffffffffffffffffffffffffffffffff16815260200190815260200160002060009054906101000a900460ff1615610989576040517f08c379a000000000000000000000000000000000000000000000000000000000815260040161098090612ee0565b60405180910390fd5b610995336008546119a6565b60405180608001604052803373ffffffffffffffffffffffffffffffffffffffff16815260200160008152602001600081526020016000151581525060066000600854815260200190815260200160002060008201518160000160006101000a81548173ffffffffffffffffffffffffffffffffffffffff021916908373ffffffffffffffffffffffffffffffffffffffff160217905550602082015181600101556040820151816002015560608201518160030160006101000a81548160ff0219169083151502179055509050506001600760003373ffffffffffffffffffffffffffffffffffffffff1673ffffffffffffffffffffffffffffffffffffffff16815260200190815260200160002060006101000a81548160ff02191690831515021790555060086000815480929190610acf90612f2f565b9190505550565b610af18383836040518060200160405280600081525061103d565b505050565b600a60009054906101000a900473ffffffffffffffffffffffffffffffffffffffff1681565b6000610b27826116ad565b9050919050565b60008073ffffffffffffffffffffffffffffffffffffffff168273ffffffffffffffffffffffffffffffffffffffff1603610ba15760006040517f89c62b64000000000000000000000000000000000000000000000000000000008152600401610b989190612898565b60405180910390fd5b600360008373ffffffffffffffffffffffffffffffffffffffff1673ffffffffffffffffffffffffffffffffffffffff168152602001908152602001600020549050919050565b60085481565b606060018054610bfd90612e06565b80601f0160208091040260200160405190810160405280929190818152602001828054610c2990612e06565b8015610c765780601f10610c4b57610100808354040283529160200191610c76565b820191906000526020600020905b815481529060010190602001808311610c5957829003601f168201915b5050505050905090565b60095481565b3373ffffffffffffffffffffffffffffffffffffffff16610ca683610b1c565b73ffffffffffffffffffffffffffffffffffffffff1614610cfc576040517f08c379a0000000000000000000000000000000000000000000000000000000008152600401610cf390612fe9565b60405180910390fd5b6006600083815260200190815260200160002060030160009054906101000a900460ff1615610d60576040517f08c379a0000000000000000000000000000000000000000000000000000000008152600401610d5790613055565b60405180910390fd5b42600660008481526020019081526020016000206001018190555080600660008481526020019081526020016000206002018190555060016006600084815260200190815260200160002060030160006101000a81548160ff0219169083151502179055507f60b3e540896cf4a419e7b7274a1f1282223f5d92ca6f0152cf820fe457fb4843828233604051610df893929190613075565b60405180910390a15050565b610e16610e0f611772565b8383611a9f565b5050565b6000806000806000600660008781526020019081526020016000206040518060800160405290816000820160009054906101000a900473ffffffffffffffffffffffffffffffffffffffff1673ffffffffffffffffffffffffffffffffffffffff1673ffffffffffffffffffffffffffffffffffffffff16815260200160018201548152602001600282015481526020016003820160009054906101000a900460ff161515151581525050905080600001518160600151826040015183602001519450945094509450509193509193565b60066020528060005260406000206000915090508060000160009054906101000a900473ffffffffffffffffffffffffffffffffffffffff16908060010154908060020154908060030160009054906101000a900460ff16905084565b60606000610f5533610b2e565b905060008167ffffffffffffffff811115610f7357610f72612be9565b5b604051908082528060200260200182016040528015610fa15781602001602082028036833780820191505090505b509050600080600190505b600854811015611033573373ffffffffffffffffffffffffffffffffffffffff16610fd682610b1c565b73ffffffffffffffffffffffffffffffffffffffff16036110205780838381518110611005576110046130ac565b5b602002602001018181525050818061101c90612f2f565b9250505b808061102b90612f2f565b915050610fac565b5081935050505090565b6110488484846107bd565b61105484848484611c0e565b50505050565b6060611065826116ad565b506000611070611dc5565b9050600081511161109057604051806020016040528060008152506110bb565b8061109a84611ddc565b6040516020016110ab929190613117565b6040516020818303038152906040525b915050919050565b60076020528060005260406000206000915054906101000a900460ff1681565b6000600560008473ffffffffffffffffffffffffffffffffffffffff1673ffffffffffffffffffffffffffffffffffffffff16815260200190815260200160002060008373ffffffffffffffffffffffffffffffffffffffff1673ffffffffffffffffffffffffffffffffffffffff16815260200190815260200160002060009054906101000a900460ff16905092915050565b60006006600083815260200190815260200160002090508060030160009054906101000a900460ff166111df576040517f08c379a00000000000000000000000000000000000000000000000000000000081526004016111d690613187565b60405180910390fd5b80600201543414611225576040517f08c379a000000000000000000000000000000000000000000000000000000000815260040161121c906131f3565b60405180910390fd5b6112636040518060400160405280600e81526020017f4275793a206d73672e76616c7565000000000000000000000000000000000000815250611eaa565b61126c34611f43565b600081600201546064600954603c85600101544261128a9190613213565b6112949190613276565b61129e91906132a7565b6112a89190613276565b6112b291906132a7565b905060008183600201546112c69190613213565b90506000811161130b576040517f08c379a00000000000000000000000000000000000000000000000000000000081526004016113029061335b565b60405180910390fd5b8260000160009054906101000a900473ffffffffffffffffffffffffffffffffffffffff1673ffffffffffffffffffffffffffffffffffffffff166108fc829081150290604051600060405180830381858888f19350505050158015611375573d6000803e3d6000fd5b50600a60009054906101000a900473ffffffffffffffffffffffffffffffffffffffff1673ffffffffffffffffffffffffffffffffffffffff166108fc839081150290604051600060405180830381858888f193505050501580156113de573d6000803e3d6000fd5b5061140e8360000160009054906101000a900473ffffffffffffffffffffffffffffffffffffffff163386611fdc565b338360000160006101000a81548173ffffffffffffffffffffffffffffffffffffffff021916908373ffffffffffffffffffffffffffffffffffffffff16021790555060008360030160006101000a81548160ff0219169083151502179055507fb6e6b0aa920ed5fbb8dd058bbd321e9b2b8780062b0dd9bc84019b47706f73ab848460020154336040516114a593929190613075565b60405180910390a150505050565b6060600060016008546114c69190613213565b905060008167ffffffffffffffff8111156114e4576114e3612be9565b5b6040519080825280602002602001820160405280156115125781602001602082028036833780820191505090505b509050600080600190505b600854811015611592576006600082815260200190815260200160002060030160009054906101000a900460ff161561157f5780838381518110611564576115636130ac565b5b602002602001018181525050818061157b90612f2f565b9250505b808061158a90612f2f565b91505061151d565b5060008167ffffffffffffffff8111156115af576115ae612be9565b5b6040519080825280602002602001820160405280156115dd5781602001602082028036833780820191505090505b50905060005b82811015611638578381815181106115fe576115fd6130ac565b5b6020026020010151828281518110611619576116186130ac565b5b602002602001018181525050808061163090612f2f565b9150506115e3565b508094505050505090565b60007f01ffc9a7000000000000000000000000000000000000000000000000000000007bffffffffffffffffffffffffffffffffffffffffffffffffffffffff1916827bffffffffffffffffffffffffffffffffffffffffffffffffffffffff1916149050919050565b6000806116b983612149565b9050600073ffffffffffffffffffffffffffffffffffffffff168173ffffffffffffffffffffffffffffffffffffffff160361172c57826040517f7e27328900000000000000000000000000000000000000000000000000000000815260040161172391906129ae565b60405180910390fd5b80915050919050565b60006004600083815260200190815260200160002060009054906101000a900473ffffffffffffffffffffffffffffffffffffffff169050919050565b600033905090565b6117878383836001612186565b505050565b60008061179884612149565b9050600073ffffffffffffffffffffffffffffffffffffffff168373ffffffffffffffffffffffffffffffffffffffff16146117da576117d981848661234b565b5b600073ffffffffffffffffffffffffffffffffffffffff168173ffffffffffffffffffffffffffffffffffffffff161461186b5761181c600085600080612186565b6001600360008373ffffffffffffffffffffffffffffffffffffffff1673ffffffffffffffffffffffffffffffffffffffff168152602001908152602001600020600082825403925050819055505b600073ffffffffffffffffffffffffffffffffffffffff168573ffffffffffffffffffffffffffffffffffffffff16146118ee576001600360008773ffffffffffffffffffffffffffffffffffffffff1673ffffffffffffffffffffffffffffffffffffffff168152602001908152602001600020600082825401925050819055505b846002600086815260200190815260200160002060006101000a81548173ffffffffffffffffffffffffffffffffffffffff021916908373ffffffffffffffffffffffffffffffffffffffff160217905550838573ffffffffffffffffffffffffffffffffffffffff168273ffffffffffffffffffffffffffffffffffffffff167fddf252ad1be2c89b69c2b068fc378daa952ba7f163c4a11628f55a4df523b3ef60405160405180910390a4809150509392505050565b600073ffffffffffffffffffffffffffffffffffffffff168273ffffffffffffffffffffffffffffffffffffffff1603611a185760006040517f64a0ae92000000000000000000000000000000000000000000000000000000008152600401611a0f9190612898565b60405180910390fd5b6000611a268383600061178c565b9050600073ffffffffffffffffffffffffffffffffffffffff168173ffffffffffffffffffffffffffffffffffffffff1614611a9a5760006040517f73c6ac6e000000000000000000000000000000000000000000000000000000008152600401611a919190612898565b60405180910390fd5b505050565b600073ffffffffffffffffffffffffffffffffffffffff168273ffffffffffffffffffffffffffffffffffffffff1603611b1057816040517f5b08ba18000000000000000000000000000000000000000000000000000000008152600401611b079190612898565b60405180910390fd5b80600560008573ffffffffffffffffffffffffffffffffffffffff1673ffffffffffffffffffffffffffffffffffffffff16815260200190815260200160002060008473ffffffffffffffffffffffffffffffffffffffff1673ffffffffffffffffffffffffffffffffffffffff16815260200190815260200160002060006101000a81548160ff0219169083151502179055508173ffffffffffffffffffffffffffffffffffffffff168373ffffffffffffffffffffffffffffffffffffffff167f17307eab39ab6107e8899845ad3d59bd9653f200f220920489ca2b5937696c3183604051611c019190612727565b60405180910390a3505050565b60008373ffffffffffffffffffffffffffffffffffffffff163b1115611dbf578273ffffffffffffffffffffffffffffffffffffffff1663150b7a02611c52611772565b8685856040518563ffffffff1660e01b8152600401611c7494939291906133d0565b6020604051808303816000875af1925050508015611cb057506040513d601f19601f82011682018060405250810190611cad9190613431565b60015b611d34573d8060008114611ce0576040519150601f19603f3d011682016040523d82523d6000602084013e611ce5565b606091505b506000815103611d2c57836040517f64a0ae92000000000000000000000000000000000000000000000000000000008152600401611d239190612898565b60405180910390fd5b805181602001fd5b63150b7a0260e01b7bffffffffffffffffffffffffffffffffffffffffffffffffffffffff1916817bffffffffffffffffffffffffffffffffffffffffffffffffffffffff191614611dbd57836040517f64a0ae92000000000000000000000000000000000000000000000000000000008152600401611db49190612898565b60405180910390fd5b505b50505050565b606060405180602001604052806000815250905090565b606060006001611deb8461240f565b01905060008167ffffffffffffffff811115611e0a57611e09612be9565b5b6040519080825280601f01601f191660200182016040528015611e3c5781602001600182028036833780820191505090505b509050600082602001820190505b600115611e9f578080600190039150507f3031323334353637383961626364656600000000000000000000000000000000600a86061a8153600a8581611e9357611e92613247565b5b04945060008503611e4a575b819350505050919050565b611f4081604051602401611ebe91906127d2565b6040516020818303038152906040527f41304fac000000000000000000000000000000000000000000000000000000007bffffffffffffffffffffffffffffffffffffffffffffffffffffffff19166020820180517bffffffffffffffffffffffffffffffffffffffffffffffffffffffff8381831617835250505050612562565b50565b611fd981604051602401611f5791906129ae565b6040516020818303038152906040527ff82c50f1000000000000000000000000000000000000000000000000000000007bffffffffffffffffffffffffffffffffffffffffffffffffffffffff19166020820180517bffffffffffffffffffffffffffffffffffffffffffffffffffffffff8381831617835250505050612562565b50565b600073ffffffffffffffffffffffffffffffffffffffff168273ffffffffffffffffffffffffffffffffffffffff160361204e5760006040517f64a0ae920000000000000000000000000000000000000000000000000000000081526004016120459190612898565b60405180910390fd5b600061205c8383600061178c565b9050600073ffffffffffffffffffffffffffffffffffffffff168173ffffffffffffffffffffffffffffffffffffffff16036120cf57816040517f7e2732890000000000000000000000000000000000000000000000000000000081526004016120c691906129ae565b60405180910390fd5b8373ffffffffffffffffffffffffffffffffffffffff168173ffffffffffffffffffffffffffffffffffffffff1614612143578382826040517f64283d7b00000000000000000000000000000000000000000000000000000000815260040161213a93929190612e37565b60405180910390fd5b50505050565b60006002600083815260200190815260200160002060009054906101000a900473ffffffffffffffffffffffffffffffffffffffff169050919050565b80806121bf5750600073ffffffffffffffffffffffffffffffffffffffff168273ffffffffffffffffffffffffffffffffffffffff1614155b156122f35760006121cf846116ad565b9050600073ffffffffffffffffffffffffffffffffffffffff168373ffffffffffffffffffffffffffffffffffffffff161415801561223a57508273ffffffffffffffffffffffffffffffffffffffff168173ffffffffffffffffffffffffffffffffffffffff1614155b801561224d575061224b81846110e3565b155b1561228f57826040517fa9fbf51f0000000000000000000000000000000000000000000000000000000081526004016122869190612898565b60405180910390fd5b81156122f157838573ffffffffffffffffffffffffffffffffffffffff168273ffffffffffffffffffffffffffffffffffffffff167f8c5be1e5ebec7d5bd14f71427d1e84f3dd0314c0f7b2291e5b200ac8c7c3b92560405160405180910390a45b505b836004600085815260200190815260200160002060006101000a81548173ffffffffffffffffffffffffffffffffffffffff021916908373ffffffffffffffffffffffffffffffffffffffff16021790555050505050565b61235683838361257c565b61240a57600073ffffffffffffffffffffffffffffffffffffffff168373ffffffffffffffffffffffffffffffffffffffff16036123cb57806040517f7e2732890000000000000000000000000000000000000000000000000000000081526004016123c291906129ae565b60405180910390fd5b81816040517f177e802f00000000000000000000000000000000000000000000000000000000815260040161240192919061345e565b60405180910390fd5b505050565b600080600090507a184f03e93ff9f4daa797ed6e38ed64bf6a1f010000000000000000831061246d577a184f03e93ff9f4daa797ed6e38ed64bf6a1f010000000000000000838161246357612462613247565b5b0492506040810190505b6d04ee2d6d415b85acef810000000083106124aa576d04ee2d6d415b85acef810000000083816124a05761249f613247565b5b0492506020810190505b662386f26fc1000083106124d957662386f26fc1000083816124cf576124ce613247565b5b0492506010810190505b6305f5e1008310612502576305f5e10083816124f8576124f7613247565b5b0492506008810190505b612710831061252757612710838161251d5761251c613247565b5b0492506004810190505b6064831061254a57606483816125405761253f613247565b5b0492506002810190505b600a8310612559576001810190505b80915050919050565b6125798161257161263d61265e565b63ffffffff16565b50565b60008073ffffffffffffffffffffffffffffffffffffffff168373ffffffffffffffffffffffffffffffffffffffff161415801561263457508273ffffffffffffffffffffffffffffffffffffffff168473ffffffffffffffffffffffffffffffffffffffff1614806125f557506125f484846110e3565b5b8061263357508273ffffffffffffffffffffffffffffffffffffffff1661261b83611735565b73ffffffffffffffffffffffffffffffffffffffff16145b5b90509392505050565b60006a636f6e736f6c652e6c6f679050600080835160208501845afa505050565b612669819050919050565b612671613487565b565b6000604051905090565b600080fd5b600080fd5b60007fffffffff0000000000000000000000000000000000000000000000000000000082169050919050565b6126bc81612687565b81146126c757600080fd5b50565b6000813590506126d9816126b3565b92915050565b6000602082840312156126f5576126f461267d565b5b6000612703848285016126ca565b91505092915050565b60008115159050919050565b6127218161270c565b82525050565b600060208201905061273c6000830184612718565b92915050565b600081519050919050565b600082825260208201905092915050565b60005b8381101561277c578082015181840152602081019050612761565b60008484015250505050565b6000601f19601f8301169050919050565b60006127a482612742565b6127ae818561274d565b93506127be81856020860161275e565b6127c781612788565b840191505092915050565b600060208201905081810360008301526127ec8184612799565b905092915050565b6000819050919050565b612807816127f4565b811461281257600080fd5b50565b600081359050612824816127fe565b92915050565b6000602082840312156128405761283f61267d565b5b600061284e84828501612815565b91505092915050565b600073ffffffffffffffffffffffffffffffffffffffff82169050919050565b600061288282612857565b9050919050565b61289281612877565b82525050565b60006020820190506128ad6000830184612889565b92915050565b6128bc81612877565b81146128c757600080fd5b50565b6000813590506128d9816128b3565b92915050565b600080604083850312156128f6576128f561267d565b5b6000612904858286016128ca565b925050602061291585828601612815565b9150509250929050565b6000806000606084860312156129385761293761267d565b5b6000612946868287016128ca565b9350506020612957868287016128ca565b925050604061296886828701612815565b9150509250925092565b6000602082840312156129885761298761267d565b5b6000612996848285016128ca565b91505092915050565b6129a8816127f4565b82525050565b60006020820190506129c3600083018461299f565b92915050565b600080604083850312156129e0576129df61267d565b5b60006129ee85828601612815565b92505060206129ff85828601612815565b9150509250929050565b612a128161270c565b8114612a1d57600080fd5b50565b600081359050612a2f81612a09565b92915050565b60008060408385031215612a4c57612a4b61267d565b5b6000612a5a858286016128ca565b9250506020612a6b85828601612a20565b9150509250929050565b6000608082019050612a8a6000830187612889565b612a976020830186612718565b612aa4604083018561299f565b612ab1606083018461299f565b95945050505050565b6000608082019050612acf6000830187612889565b612adc602083018661299f565b612ae9604083018561299f565b612af66060830184612718565b95945050505050565b600081519050919050565b600082825260208201905092915050565b6000819050602082019050919050565b612b34816127f4565b82525050565b6000612b468383612b2b565b60208301905092915050565b6000602082019050919050565b6000612b6a82612aff565b612b748185612b0a565b9350612b7f83612b1b565b8060005b83811015612bb0578151612b978882612b3a565b9750612ba283612b52565b925050600181019050612b83565b5085935050505092915050565b60006020820190508181036000830152612bd78184612b5f565b905092915050565b600080fd5b600080fd5b7f4e487b7100000000000000000000000000000000000000000000000000000000600052604160045260246000fd5b612c2182612788565b810181811067ffffffffffffffff82111715612c4057612c3f612be9565b5b80604052505050565b6000612c53612673565b9050612c5f8282612c18565b919050565b600067ffffffffffffffff821115612c7f57612c7e612be9565b5b612c8882612788565b9050602081019050919050565b82818337600083830152505050565b6000612cb7612cb284612c64565b612c49565b905082815260208101848484011115612cd357612cd2612be4565b5b612cde848285612c95565b509392505050565b600082601f830112612cfb57612cfa612bdf565b5b8135612d0b848260208601612ca4565b91505092915050565b60008060008060808587031215612d2e57612d2d61267d565b5b6000612d3c878288016128ca565b9450506020612d4d878288016128ca565b9350506040612d5e87828801612815565b925050606085013567ffffffffffffffff811115612d7f57612d7e612682565b5b612d8b87828801612ce6565b91505092959194509250565b60008060408385031215612dae57612dad61267d565b5b6000612dbc858286016128ca565b9250506020612dcd858286016128ca565b9150509250929050565b7f4e487b7100000000000000000000000000000000000000000000000000000000600052602260045260246000fd5b60006002820490506001821680612e1e57607f821691505b602082108103612e3157612e30612dd7565b5b50919050565b6000606082019050612e4c6000830186612889565b612e59602083018561299f565b612e666040830184612889565b949350505050565b7f596f75206861766520616c726561647920636c61696d6564207468652061697260008201527f64726f702e000000000000000000000000000000000000000000000000000000602082015250565b6000612eca60258361274d565b9150612ed582612e6e565b604082019050919050565b60006020820190508181036000830152612ef981612ebd565b9050919050565b7f4e487b7100000000000000000000000000000000000000000000000000000000600052601160045260246000fd5b6000612f3a826127f4565b91507fffffffffffffffffffffffffffffffffffffffffffffffffffffffffffffffff8203612f6c57612f6b612f00565b5b600182019050919050565b7f596f7520617265206e6f7420746865206f776e6572206f66207468697320686f60008201527f7573652e00000000000000000000000000000000000000000000000000000000602082015250565b6000612fd360248361274d565b9150612fde82612f77565b604082019050919050565b6000602082019050818103600083015261300281612fc6565b9050919050565b7f486f75736520697320616c7265616479206c69737465642e0000000000000000600082015250565b600061303f60188361274d565b915061304a82613009565b602082019050919050565b6000602082019050818103600083015261306e81613032565b9050919050565b600060608201905061308a600083018661299f565b613097602083018561299f565b6130a46040830184612889565b949350505050565b7f4e487b7100000000000000000000000000000000000000000000000000000000600052603260045260246000fd5b600081905092915050565b60006130f182612742565b6130fb81856130db565b935061310b81856020860161275e565b80840191505092915050565b600061312382856130e6565b915061312f82846130e6565b91508190509392505050565b7f486f757365206973206e6f7420666f722073616c652e00000000000000000000600082015250565b600061317160168361274d565b915061317c8261313b565b602082019050919050565b600060208201905081810360008301526131a081613164565b9050919050565b7f496e636f7272656374207061796d656e7420616d6f756e742e00000000000000600082015250565b60006131dd60198361274d565b91506131e8826131a7565b602082019050919050565b6000602082019050818103600083015261320c816131d0565b9050919050565b600061321e826127f4565b9150613229836127f4565b925082820390508181111561324157613240612f00565b5b92915050565b7f4e487b7100000000000000000000000000000000000000000000000000000000600052601260045260246000fd5b6000613281826127f4565b915061328c836127f4565b92508261329c5761329b613247565b5b828204905092915050565b60006132b2826127f4565b91506132bd836127f4565b92508282026132cb816127f4565b915082820484148315176132e2576132e1612f00565b5b5092915050565b7f5468697320686f75736520686173206c697374656420666f7220746f6f206c6f60008201527f6e672074696d6520746f20626520736f6c640000000000000000000000000000602082015250565b600061334560328361274d565b9150613350826132e9565b604082019050919050565b6000602082019050818103600083015261337481613338565b9050919050565b600081519050919050565b600082825260208201905092915050565b60006133a28261337b565b6133ac8185613386565b93506133bc81856020860161275e565b6133c581612788565b840191505092915050565b60006080820190506133e56000830187612889565b6133f26020830186612889565b6133ff604083018561299f565b81810360608301526134118184613397565b905095945050505050565b60008151905061342b816126b3565b92915050565b6000602082840312156134475761344661267d565b5b60006134558482850161341c565b91505092915050565b60006040820190506134736000830185612889565b613480602083018461299f565b9392505050565b7f4e487b7100000000000000000000000000000000000000000000000000000000600052605160045260246000fdfea26469706673582212200d9a790572182d5cf4a400d9eb5eef77c66ca214b1cd0bc009a1629badfd007b64736f6c63430008140033",
  "linkReferences": {},
  "deployedLinkReferences": {}
}